:020000040800F2
:10000000EC3900201D4600089D3F0008A73F00086E
:10001000B13F0008BB3F0008C53F00088241FEAF6A
:10002000000000000000000000000000453D000846
:10003000CF3F000800000000DD3D000881270008D8
:10004000D93F0008EB3F0008FD3F00080F400008C3
:100050002140000833400008454000085740000890
:10006000694000087B4000088D4000089F40000860
:10007000B1400008C3400008D5400008E740000830
:10008000F94000080B4100081D4100082F410008FD
:1000900041410008534100086541000877410008CC
:1000A000894100089B410008AD410008BF4100089C
:1000B000D1410008E3410008F5410008074200086B
:1000C000194200082B4200083D4200084F42000838
:1000D0006142000873420008854200089742000808
:1000E000A9420008BB420008CD420008DF420008D8
:1000F000F1420008034300081543000827430008A5
:10010000394300084B4300085D4300086F43000873
:100110008143000893430008A5430008B743000843
:10012000C9430008DB430008ED430008FF43000813
:1001300011440008234400083544000847440008DF
:10014000594400086B4400087D4400088F440008AF
:10015000A1440008B3440008C5440008D74400087F
:10016000E9440008FB4400080D4500081F4500084D
:10017000314500084345000855450008674500081B
:10018000794500088B4500089D450008AF450008EB
:10019000C1450008D3450008E5450008F7450008BB
:1001A00029250008094600089125000870B51E465B
:1001B00003680446BDF910505B6B984723682046DE
:1001C00031469A6B9047236820462946DB6BBDE891
:1001D0007040184781807047C180704770B50368D0
:1001E00004461546DB6A98472368204629461B6B60
:1001F000BDE87040184701817047418170477047E2
:1002000070477047704770478388C91AC38830B5F4
:10021000D21A056809B26B6D12B2BDE830401847BA
:100220004FF6FF738381038443841368C3611060B6
:1002300070477047704770477047704790F82520A7
:100240001AB190F8242002B11860704770477047C7
:1002500070477047704703898B4286BF00EB81006F
:10026000406800207047038943B1436893F83730F2
:10027000002B0CBF4FF0FF30002070474FF0FF30D5
:10028000704710B5036804461B699847011E06DBDA
:100290002368204689B2DB68BDE81040184700207B
:1002A00010BD002210B5048993B29C4206D900EB20
:1002B000830301325B6883F83810F4E710BD0389CB
:1002C0001BB1436893F8380070471846704710B563
:1002D000C268836812F0010F40684FEA620218BFDB
:1002E0008458104418BFE358BDE8104018474368CD
:1002F0002BB183682BB9C06800F001007047184625
:1003000070470120704710B5C268836812F0010F72
:1003100040684FEA620218BF8458104418BFE3587F
:10032000BDE81040184743682BB183682BB9C068FB
:1003300000F001007047184670470120704710B563
:1003400004460EF0C3FE204610BD10B504460EF064
:10035000BDFE204610BD10B504460EF0B7FE204687
:1003600010BD70B505460C460846012109F038FD60
:100370002B68284621465B6ABDE87040184770B577
:100380000446006B0D4650B10368DB68984730B1F6
:10039000206B29460368BDE870409B68184770BD14
:1003A00008B503892BB109486B21094A094B01F0B3
:1003B0008BFC00F10C038B6200F11C03CB630389FF
:1003C0005A1C028100EB8300416008BDFCF5000867
:1003D00088F600084FF6000870B504460E46002562
:1003E0002289ABB29A420CD904EB83035868B0421D
:1003F00005D090F8373013B1002109F0F1FC013538
:10040000EEE7E06A50B10368DB68984730B1E06A14
:1004100031460368BDE870409B68184770BD000016
:1004200010B5044600F01EFA014B2046236010BDB3
:10043000D0F50008064B10B50446036000F5F470D3
:1004400008F00CFE04F1700008F008FE204610BD14
:1004500098F5000810B50446FFF7ECFF20460EF0B3
:1004600035FE204610BD0000034B10B50446036066
:10047000FFF7E0FF204610BDD0F5000810B5044698
:10048000FFF7F2FF20460EF021FE204610BD704718
:10049000A0F10400FFF7FBBF7047704710B504469A
:1004A0000EF014FE204610BDA0F10400F6E7000097
:1004B0000022C1608260044A10B502F108042032B3
:1004C0000460426010BD00BFF8F600087047A0F15C
:1004D0000400FFF7FBBF7047704710B504460EF0ED
:1004E000F5FD204610BDA0F10400F6E70022C16032
:1004F0008260044A10B502F10804203204604260B0
:1005000010BD00BF20F700080022028042808280D8
:10051000C280704770B5036804461546DB6A984789
:100520002368204629465B6EBDE8704018470D20C1
:10053000704790F82C00704706207047704770474E
:1005400070477047C1867047C08E704790F8320080
:10055000704710B5C268836812F0010F40684FEA17
:10056000620218BF8458104418BFE358BDE8104019
:10057000184743682BB183682BB9C06800F00100AD
:100580007047184670470120704710B504460EF0BA
:100590009DFD204610BD10B504460EF097FD204687
:1005A00010BD70B504460D4608F0BAFCE06B58B1BA
:1005B0000368DB68984738B1E06B21462A46036838
:1005C000BDE870409B68184770BD000070B50368B7
:1005D00005468CB2C28C1E6B104B1B6823B91048A9
:1005E000E621104A104B07E010490988914205D8CE
:1005F0000B48E7210B4A0E4B01F066FB13F8122063
:100600000C4B1B6853F822000368DB6A9847211AD9
:100610003346284609B2BDE87040184754320020DE
:10062000AAF700087CF70008EEF700085C3200200B
:1006300030F800086032002070B590F8323004467F
:10064000002B3AD0828EC08E824202D20132A28624
:1006500070BD238FC1188A4213D8618F101AA28FE0
:10066000256C80B2521A002112B2A84794F83A3091
:10067000184484F82E0020460BF09DFBA38E013316
:10068000A386E18E238FA28E0B449A4215D90023B4
:1006900084F8323023870AF0BBFC21460AF0BEFC06
:1006A000606C50B10368DB68984730B1606C2146DC
:1006B0000368BDE870409B68184770BD704710B56F
:1006C00004460EF003FD204610BD000010B50446A0
:1006D00000F07EFA014B2046236010BD90F8000820
:1006E000064B10B50446036000F5AC7007F088FCBB
:1006F00004F1400008F0B2FC204610BD50F700089D
:1007000010B50446FFF7ECFF20460EF0DFFC204654
:1007100010BD0000034B10B504460360FFF7E0FF77
:10072000204610BD90F8000810B50446FFF7F2FF10
:1007300020460EF0CBFC204610BD00220260704720
:1007400070477047704770477047C268836812F0FF
:10075000010F40684FEA620218BF8158104418BF69
:10076000CB58184743682BB183682BB9C06800F099
:1007700001007047184670470120704710B50446C5
:100780000EF0A4FC204610BD10B504460EF09EFCF1
:10079000204610BD10B504460EF098FC204610BD52
:1007A00010B50446D0F82401FFF7CAFF2046BDE883
:1007B00010400AF0F9BA10B50446D0F80C0158B14F
:1007C0000368DB68984738B1D4F80C0103689B686C
:1007D00098470023C4F80C3110BD000010B5044642
:1007E00000F0D2FD014B2046236010BDC8F8000880
:1007F00000F58270884208B505D10AF009FCBDE811
:10080000084000F0F5BD08BD094A02600022828060
:10081000C280028142818281C2810282428242611F
:100820008261C26180F82420012280F8252070476F
:10083000B819010810B50446FFF7E6FF084B4FF65C
:10084000FF72204623600023E284A362A38584F81C
:100850002E2084F82F3084F8303084F8313010BDE9
:10086000C80F01082DE9F04F04468FB000250BF0AA
:1008700069FDA146C74BE56304F1700849F8403BA8
:100880004846FFF7C1FFC44BA56640462364FF23DB
:1008900084F86C5004F5BA7684F866304FF0010A9B
:1008A00008F02EFC04F19C0304F5F4770DF1380BED
:1008B00018460393FFF7BEFF04F1D00318460493D4
:1008C000FFF7B8FF04F582731846059309F00AF99B
:1008D00004F5A07318460693FFF7ACFF3046FFF708
:1008E00093FFAE4BC4F89C51C4F874314FF6FF73BC
:1008F00084F8A051A4F8A231A4F8A431A4F8A63138
:10090000A4F8A83184F8AA3104F5DA7384F898A120
:1009100084F8AB51184684F8AC510793FFF78AFF6F
:10092000384608F0EDFB04F5057318460893FFF709
:1009300081FF9B4B04F5127C2422C4F848324846C0
:10094000984B5146C4F858C2C4F85432C4F86432C3
:100950002823C4F868C2C4F86C32934BA4F85052F0
:10096000C4F87C32914BC4F85C222A46C4F8843225
:100970004FF48873C4F860A2C4F870A2C4F874522B
:10098000C4F87852C4F8885200934FF4F073C4F856
:100990008042CDF824C0FFF709FC5E2225211320F8
:1009A0000CF0A2F90A23A06640462BF8043D5946F4
:1009B00008F061FB1A21622340460A46009368232F
:1009C000FFF7F4FB404651464FF00C0A08F047FB96
:1009D000039899212422FFF701FC99219E200A46C1
:1009E0000CF082F9A4F8C850C4F8C4004FF0090113
:1009F000039808F07DFE049899213E22FFF7EEFB54
:100A000099219E200A460CF06FF9A4F8FC50C4F816
:100A1000F8005146049808F06BFE3C2305982946DF
:100A20000093D422FFF7C2FB032305980AA9ADF86F
:100A300028300BAAADF82C300823CDF800B0ADF863
:100A40003030ADF834300CAB08F0A5FF1523069814
:100A50004221A4F83C310E23E722A4F83E3104F5EC
:100A60001F73C4F82C31FFF7B9FB5246BD21A820F3
:100A70000CF03AF9A4F86C51C4F8680129460698BC
:100A800008F036FE304692217522FFF7A7FB0623B9
:100A90000BAA3046ADF828300AA9ADF82C30ADF8D5
:100AA0003030ADF834300CABCDF800B009F0BBF805
:100AB0003046294609F094F984F8AC510798CD21C5
:100AC0008022FFF78BFB9420024601460CF00CF9C4
:100AD000A4F8E051C4F8DC014FF00F01079808F0CA
:100AE00007FE0B2338465946ADF8343008F0C3FAF8
:100AF00028233846AF22912100932F23FFF756FB7E
:100B00003846294608F0ABFA0898CD21BB22FFF7FA
:100B100065FB7A20024601460CF0E6F8A4F8405244
:100B2000251DC4F83C024FF01001089808F0E0FDC4
:100B30002846494607F0DEFB2846414607F0DAFB27
:100B40002846039907F0D6FB2846049907F0D2FB04
:100B50002846059907F0CEFB2846069907F0CAFB00
:100B60002846314607F0C6FB2846079907F0C2FB26
:100B70002846394607F0BEFB2846089907F0BAFB1D
:100B8000DDF824C031466046FFF70AFC20460FB06E
:100B9000BDE8F08F98F50008A0100108F8120108D0
:100BA00020F9000808F9000858F90008F1070008C2
:100BB00008B500F1D003994209D000F510708142C8
:100BC00005D10AF025FABDE8084000F021BC08BDB7
:100BD0002DE9F04F04468FB000250BF0B3FBA04683
:100BE000BF4BE563FF2648F8403B404608F088FAD3
:100BF0004FF0010B04F19C0ABA4BA4F8705004F5B5
:100C0000AC77A4F872505046A4F87450A4F876500B
:100C1000A4F87850A4F87A50A4F87C50A4F87E5038
:100C2000C4F88050C4F88450C4F8885084F89050B8
:100C300084F891B0E366C4F8945084F8985084F82E
:100C40009260FFF7F7FD04F1D003DFF8A892184691
:100C5000069308F047FF04F58873C4F8D090C4F8F1
:100C60000C51184684F8F4B00293FFF7E3FD9E4B55
:100C7000384684F84251C4F81031A4F84451A4F81D
:100C80004651C4F8545107F027FA04F50373184687
:100C90000493FFF7CFFD04F510731846039308F093
:100CA00021FF04F52073C4F840920DF13809C4F80F
:100CB0007C52184684F864B20593FFF7BBFD8B4B5A
:100CC0004046C4F8C052C4F8B432894BC4F8B842A4
:100CD000C4F8BC32092329F8043D494608F0CBF991
:100CE00040F215134046294600936FF004024FF47A
:100CF000F073FFF75BFA4046294608F0B0F904F1BB
:100D00006C0329462A4607933223079800934FF431
:100D1000F073FFF74BFA29462A4628460BF0E4FF0A
:100D20003621C4F8940006225046FFF757FA32469F
:100D3000314630460BF0D8FF4FF0040CC4F8C40025
:100D400050466146A4F8C850CDF824C008F0D0FC45
:100D50003C23069829463F220093AA23FFF726FA50
:100D60000223ADF828B04FF0050BADF82C300AA9DE
:100D700006980BAA0CABCDF80090ADF830B0ADF8EA
:100D800034B008F008FE3E23029829467C22A4F8DD
:100D900008310723A4F80A310893FFF71FFAA622A7
:100DA0006A213A200BF0A0FFA4F83C51C4F83801A6
:100DB0005946029808F09CFC384629462A46FFF717
:100DC0000DFA089B38464946ADF83430D8227423D2
:100DD00007F017F9572130460A460BF085FF014608
:100DE000384607F03AF93846962107F03AF938467E
:100DF00007F027F904982946F922FFF7EFF9324660
:100E0000314630460BF070FFA4F83852C4F8340273
:100E10004FF00601049808F06BFC3C2303984FF454
:100E2000A8710093D422FFF7C1F90323DDF824C091
:100E30000AA9ADF828300BAA03980CABCDF80090A6
:100E4000ADF830C0ADF834C0ADF82C5008F0A3FDBB
:100E50000F23059840F28911E722A4F87832112374
:100E6000A4F87A3204F52D73C4F86832FFF7B6F9A6
:100E70003246D32151200BF037FFA4F8AC52251D88
:100E8000C4F8A8024FF00801059808F031FC284684
:100E9000414607F02FFA2846079907F02BFA284613
:100EA000514607F027FA2846069907F023FA284604
:100EB000029907F01FFA2846394607F01BFA284620
:100EC000049907F017FA2846039907F013FA284601
:100ED000059907F00FFA20460FB0BDE8F08F00BF6C
:100EE00050F70008A0100108E8F9000870FA00089F
:100EF000B10B000870F900087047704741607047F7
:100F000070470123037270477047704710B5C2687D
:100F1000836812F0010F40684FEA620218BF8458DC
:100F2000104418BFE358BDE81040184743682BB180
:100F300083682BB9C06800F00100704718467047FD
:100F40000120704710B5C268836812F0010F406835
:100F50004FEA620218BF8458104418BFE358BDE836
:100F60001040184743682BB183682BB9C06800F064
:100F700001007047184670470120704710B50446BD
:100F80000EF0A4F8204610BD10B504460EF09EF8F1
:100F9000204610BD10B504460EF098F8204610BD4E
:100FA00070B516460C4605460AF032F80AF04DF8C0
:100FB000306810B10368DB689847306810B1036887
:100FC0001B689847286810B103685B6998472068D8
:100FD00010B103685B689847286810B103681B6804
:100FE0009847206820B10368BDE870409B681847A7
:100FF00070BD70B503680E4614460546DB68984719
:10100000336830461B689847214628460BF0FDFAA6
:10101000236820461B69984709F0FAFF0368BDE87A
:1010200070409B6A18470346084610B5DA6B914238
:1010300018D093F85020032A12D8DFE802F00808ED
:1010400002020268B3F95610546D002204E00268EF
:101050000021546DB3F956202346BDE810401847CF
:1010600001221A7210BD0346084610B5DA6B914290
:1010700018D093F85020032A12D8DFE802F00808AD
:1010800002020268B3F95610546D002204E00268AF
:101090000021546DB3F956202346BDE8104018478F
:1010A00001221A7210BD0000044B01461B7823B1C7
:1010B00040680C3103689B6E18477047D43100209C
:1010C00010B590F85030032B28D8DFE803F0141D3A
:1010D000020A0B680846124A5B6DB2F90010002242
:1010E00019E00F4B08460A681B88546D00225B42CA
:1010F00019B223460FE00B4A08460B6800211288FC
:101100005B6D524212B206E00B680846054A0021A8
:101110005B6DB2F90020BDE81040184710BD00BF5C
:10112000D8310020D6310020044B01461B7823B172
:1011300040680C3103689B6E18477047D43100201B
:1011400010B590F85030032B28D8DFE803F0141DB9
:10115000020A0B680846124A5B6DB2F900100022C1
:1011600019E00F4B08460A681B88546D00225B4249
:1011700019B223460FE00B4A08460B68002112887B
:101180005B6D524212B206E00B680846054A002128
:101190005B6DB2F90020BDE81040184710BD00BFDC
:1011A000D8310020D63100202B4B10B51B780446D7
:1011B00013B90123037210BD90F8520094F8513016
:1011C0000130C0B2984284F8520010D8B4F95420CB
:1011D00000210BF037FA83B2DA070ED500284FF65C
:1011E000FF72C8BF01221344A4F8563007E0012360
:1011F0002372002384F8523010BDA4F8560094F8EE
:101200005030032B1DD8DFE803F00E0E0202B4F8B5
:10121000563004F10C00218A0022591A89B2A4F830
:10122000561009B20AE0B4F8563004F10C00628A94
:1012300000219A1A92B2A4F8562012B20AF0EBFDDD
:1012400001E001232372606804F140010368BDE8F6
:101250001040DB6F184700BFD43100202B4B10B576
:101260001B78044613B90123037210BD90F8520095
:1012700094F851300130C0B2984284F8520010D82E
:10128000B4F9542000210BF0DDF983B2DA070ED552
:1012900000284FF6FF72C8BF01221344A4F856304D
:1012A00007E001232372002384F8523010BDA4F814
:1012B000560094F85030032B1DD8DFE803F00E0ED3
:1012C0000202B4F8563004F10C00218A0022591AA7
:1012D00089B2A4F8561009B20AE0B4F8563004F105
:1012E0000C00628A00219A1A92B2A4F8562012B217
:1012F0000AF091FD01E001232372606804F14001CE
:101300000368BDE81040DB6F184700BFD4310020F0
:101310001FB50C4B04461B788BB10B4B69464068DC
:101320008DE8180018230293012303930368DB6FF1
:101330009847606804F10C0103685B6E984704B03D
:1013400010BD00BFD431002000FB00081FB50C4BBE
:1013500004461B788BB10B4B694640688DE818003A
:1013600018230293012303930368DB6F9847606897
:1013700004F10C0103685B6E984704B010BD00BF18
:10138000D431002040FB000870B5044616460D46D7
:1013900009F07AFE0B4A0023C4F82061204614604D
:1013A000094AC4F808312260084AC4F80C31C4F86C
:1013B0001021C4F81431C4F81831C4F81C31C4F831
:1013C000245170BD38320020A0FA000888FA0008C5
:1013D000064BC0F81401C0F818310023C0F81C31C6
:1013E00000F58873C0F80C31704700BF1115000874
:1013F000064BC0F81401C0F818310023C0F81C31A6
:1014000000F58873C0F80C31704700BFA9180008B8
:10141000064BC0F81401C0F818310023C0F81C3185
:1014200000F58873C0F80C31704700BF0917000839
:101430002DE9F047804690689A468946036814462D
:10144000089F1B6A9847B0F5317F04D22A48DA21F9
:101450002A4A2B4B09E0606803681B6A98470F28EB
:1014600005D82548DB21254A264B00F02DFCE068F5
:1014700003681B6A98470B2804D81F48DC211F4AC1
:10148000214BF2E7404649465246FFF789FDE068A6
:10149000002103685B6A9847054620B1002343603A
:1014A00003721A4B0360A068002103685B6A9847C7
:1014B000064608B1FFF70AF96068002103685B6A15
:1014C0009847044610B13146FFF710F8CAF80050AB
:1014D000C9F80040C8F800600CB1231D00E02346A5
:1014E0003B603046A7602146F4632A46FFF781FD42
:1014F0002046BDE8F08700BFA8FC0008C0FE000839
:10150000ECFC00087AFD00081DFE0008E0FA000867
:1015100007B50346D0F824210548009203F58471ED
:10152000D3F82021034BFFF783FF03B05DF804FBE2
:101530003C3200204C320020044B10B5044640F8E9
:101540000C3B07F015FD204610BD00BF58FB0008FE
:1015500010B50446FFF7F0FF20460DF0B7FD20461A
:1015600010BD0000044B10B5044640F80C3B07F0DA
:10157000FFFC204610BD00BF18FB000810B5044654
:10158000FFF7F0FF20460DF0A1FD204610BD000042
:101590002DE9F04F804690689A4685B003688946E9
:1015A00015461B6A9847B0F5237F04D24C48DA21D0
:1015B0004C4A4D4B09E0686803681B6A98470F283E
:1015C00005D84748DB21474A484B00F07DFBE868D7
:1015D00003681B6A9847572804D84148DC21414AD0
:1015E000434BF2E7404649465246FFF7D9FCE868CC
:1015F000002103685B6A98470446002846D0002112
:1016000006463C4B4160017246F80C3B3046039164
:1016100007F002FD384B039923641C23E663A3649F
:1016200001236464E364022384F8521084F8503088
:101630001423A4F8561084F85130304B1B782BB388
:10164000DFF8C0B030462E4FBBF90020B7F90030AC
:1016500000920A46FEF7AAFD304607F08BFC94F88C
:101660005030032B10D8DFE803F0060B02043B8850
:1016700008E03B8801E0BBF80030A4F8543005E0F6
:10168000BBF800305B42F8E701232372A868002111
:1016900003685B6A9847064608B1FEF7C1FE6868B2
:1016A000002103685B6A9847054610B13146FEF792
:1016B000FFFECAF80040C9F80050C8F800600DB13C
:1016C0002B1D00E02B460E9A304629461360AA6077
:1016D0002246F563FFF78DFC284605B0BDE8F08F84
:1016E000A8FC000878FB0008ECFC00087AFD000864
:1016F0001DFE000858FB000840FB0008D431002004
:10170000D8310020D631002007B50346D0F8242177
:101710000548009203F58471D3F82021034BFFF7AD
:1017200037FF03B05DF804FB3C3200204C32002050
:101730002DE9F04F804690689A4685B00368894647
:1017400015461B6A9847B0F5317F04D24C48DA2120
:101750004C4A4D4B09E0686803681B6A98470F289C
:1017600005D84748DB21474A484B00F0ADFAE86806
:1017700003681B6A9847572804D84148DC21414A2E
:10178000434BF2E7404649465246FFF709FCE868FA
:10179000002103685B6A98470446002846D0002170
:1017A00006463C4B4160017246F80C3B30460391C3
:1017B00007F032FC384B039923641C23E663A364CF
:1017C00001236464E364032384F8521084F85030E6
:1017D0001423A4F8561084F85130304B1B782BB3E7
:1017E000DFF8C0B030462E4FBBF90020B7F900300B
:1017F00000920A46FEF7DAFC304607F0BBFB94F88D
:101800005030032B10D8DFE803F0060B02043B88AE
:1018100008E03B8801E0BBF80030A4F8543005E054
:10182000BBF800305B42F8E701232372A86800216F
:1018300003685B6A9847064608B1FEF747FF686889
:10184000002103685B6A9847054610B13146FEF7F0
:101850004DFECAF80040C9F80050C8F800600DB14C
:101860002B1D00E02B460E9A304629461360AA60D5
:101870002246F563FFF7BDFB284605B0BDE8F08FB3
:10188000A8FC0008C4FF0008ECFC00087AFD000872
:101890001DFE000818FB000800FB0008D4310020E2
:1018A000D8310020D631002007B50346D0F82421D6
:1018B0000548009203F58471D3F82021034BFFF70C
:1018C00037FF03B05DF804FB3C3200204C320020AF
:1018D0007047000030B5144D89B02B6813F0010437
:1018E0001ED1284600F0D7F9D0B104230F492B228E
:1018F00006940093019302230794029301230C485A
:1019000003930C4B04930C4B059311230AF0E4FE54
:10191000284600F0C1F906480849094A0DF0D0FBF5
:10192000034809B030BD00BF940800209833010877
:10193000C408002040240108B02C0108D118000878
:101940005409002030B5134D89B02C6814F00104FF
:101950001DD1284600F09FF9C8B1062204230E4984
:1019600002940394069407940C488DE80C000C4BE9
:101970000F2204930B4B05931D230AF0ADFE28465E
:1019800000F08AF905480849084A0DF099FB034818
:1019900009B030BDB808002038220108E408002052
:1019A0001C2D0108B4320108D11800085409002088
:1019B00030B5144D89B02C6814F001041ED12846AE
:1019C00000F069F9D0B1022204230F490294069471
:1019D00007940E488DE80C0001230E2203930C4B54
:1019E00004930C4B05930B230AF076FE284600F077
:1019F00053F906480849094A0DF062FB034809B04B
:101A000030BD00BFBC080020C4320108040900201A
:101A10000C230108A82C0108D11800085409002043
:101A200030B5134D89B02C6814F001041CD1284640
:101A300000F031F9C0B104230E492246009401930D
:101A40000D4B029404930D4B0394059328230694A5
:101A500007940B480AF040FE284600F01DF908489C
:101A60000849094A0DF02CFB054809B030BD00BFFC
:101A7000C0080020883301083C240108AC2C010870
:101A800098080020D11800085409002010B5044619
:101A90000DF01CFB204610BD704703290BD8DFE872
:101AA00001F002040608FFF715BFFFF7B9BFFFF703
:101AB0007FBFFFF747BF0020704710B504460DF009
:101AC00005FB204610BD000000487047B8370108EC
:101AD00011207047004870472409002010B5074CBA
:101AE000FFF7F8FE2060FFF79BFF6060FFF760FFE5
:101AF000A060FFF727FFE06010BD00BF24090020B1
:101B000038B50A4B0A4A18800A4B1A60FFF7DCFF07
:101B10000546FFF7DFFF0446FFF7DAFF064B1D60BF
:101B2000064B1C60064B188038BD00BF48090020DA
:101B3000743701083C090020543200206032002034
:101B40005C320020014A024B1A607047743701086A
:101B50003C09002000487047FC0001080C20704739
:101B600008B50146034B186801B1012107F09EF842
:101B7000012008BDD031002003220120002108B53A
:101B800001F03AF9074A106020B100210A460B46DD
:101B900001F068F901200022014601F02DF9024B05
:101BA000186008BD4C09002050090020034B00219B
:101BB0004FF0FF3218680B4601F0A4BA4C09002020
:101BC000034B002118680A460B4601F04BB900BFD1
:101BD0004C090020034B002118680A460B4601F00F
:101BE00091BA00BF4C09002007B5002302A941F8B3
:101BF000043D084B186801F03DFA019B3BB14FF0E2
:101C00008052054B1A60BFF34F8FBFF36F8F03B045
:101C10005DF804FB4C09002004ED00E00B4B07B518
:101C2000186880B1002302AA094942F8043D01F076
:101C3000BDF9019B3BB14FF08052064B1A60BFF3D8
:101C40004F8FBFF36F8F03B05DF804FB5009002086
:101C50001000002004ED00E070B50022074D084C94
:101C600013462868214601F04DFA286821464FF0B6
:101C7000FF320023BDE8704001F044BA5009002053
:101C800010000020FEE7FEE70020014901F0A8BD9A
:101C9000611B0008704770477047FEE710F00303B0
:101CA000074918BFC3F104030A6818BFC018131806
:101CB000044883423ABF10460B604FF0FF30704734
:101CC00014000020E4350020FEE70000024B1868F5
:101CD0000368DB68184700BFD03100201FB500F053
:101CE0004DFE00F05BFD0323064940F2B63200933F
:101CF0000023054801930293039301F0D3FB01F005
:101D0000F5FBFEE7EC010108CD1C000840687047B8
:101D100041607047521A02EB5300B0FBF3F070477A
:101D2000024B1B68586A00EB4000704758090020BE
:101D3000704700000F4B13B51A6C0F4C42F00102B4
:101D400020461A644FF0FF321B6CE26003F001037F
:101D50000193019B4FF08043236000232361A36024
:101D600063600123636105F069FC204605F0F5FB23
:101D700002B010BD003802405809002010B50446DA
:101D80000DF0A4F9204610BD10B5036804461B6988
:101D900031B19847A26863689B1A1844606010BD0F
:101DA0009847A06010BD704738B5044602F0B8FDF2
:101DB000054602F0C1FD81B2A8B203F02DF808B9C2
:101DC0000123237138BD10B504460DF07FF920467C
:101DD00010BD70B504798CB00E4615466CB101A8E3
:101DE00003F070F89DF8043033B1BDF81030336063
:101DF000BDF806302B6000E01C4620460CB070BDDC
:101E000003681B6C184703685B6A1847104B002275
:101E100030B5C3F88420BFF34F8FD3F88020C2F3CE
:101E20004E33C2F3C902590143F6E070084011462F
:101E300040EA8175064C11F1FF31C4F87452F7D2B3
:101E400013F1FF33EFD2BFF34F8FBFF36F8F30BD6E
:101E500000ED00E070470000034B044A13601A686D
:101E600042F400721A60704700B0024098090020E6
:101E7000034B40F2EF101B78002B18BF0020704777
:101E80009409002010B504460DF020F9204610BD3D
:101E90002DE9F843444B0D46B1F80C801B68CF89FF
:101EA00098680E7E03681B6A984710282A7E6B6923
:101EB0001BD19BB24FF01F0E03F01F04D90AC3F3CE
:101EC0004513C4EB0424C1EB0121C3EB032394FBB2
:101ED000FEF444EA026291FBFEF442EA04443F222B
:101EE00093FBF2F344EA032201E043EA0262DFF8E3
:101EF000BC904FF0806CDFF8B8E0022300243F2153
:101F0000CEF888C022F07F4289F8393007EB0847C5
:101F1000D9F8003010281C60D9F8003099601C6195
:101F20009C61DC615C625C63A968D9604FEA066110
:101F30001C6141F4803141F00901D96108BF0221DF
:101F40001A6218BF01215F64AA685A616A8AC8EBE5
:101F500002029A614FF07F4292FAA2F2B2FA82F242
:101F600096400E435E625A69DA639A691A645A6A45
:101F70005A63CEF808C0FFF749FFD9F8002013686C
:101F800023F4403343F400331360D9F8002013687E
:101F900043F40C531360D9F80020136843F0010395
:101FA0001360BDE8F88300BFD031002098090020FD
:101FB00000E100E02DE9F3470E6882460C46202E32
:101FC00007D0402E05D0321F57425741802E06D0F1
:101FD00000E00127A6F580735E425E4100E0012625
:101FE0005D4B1B68986803681B6A984723688046A6
:101FF000402B14D004D8042B0AD0202B0FD011E092
:10200000802B19D0B3F5807F0CD14FF0090915E072
:1020100010280CBF4FF002094FF001090EE04FF0FD
:1020200000090BE0B8F1100F4FF000050CBF4FF0A6
:1020300002094FF0010903E04FF00A094FF400359F
:10204000E3894FF08062AAF8A43ADFF818A1434B65
:102050005046C3F8882003F0C9FDB8F1100FA289DB
:1020600050460CBF02230123CAF804505546CAF853
:102070000830638ACAF82C909B1ACAF80C30238A5D
:10208000A2899B1ACAF82830354BCAF8003003F0F1
:10209000DEFC0FB9002E3ED0237EFF2B17BF02239C
:1020A00000232B63237E0CBF2B636B631EB3B8F13D
:1020B000100F217E63691BD19BB24FF01F0E03F0FE
:1020C0001F02D80AC3F34513C2EB0222C0EB002063
:1020D000C3EB032392FBFEF242EA016190FBFEF2A6
:1020E00041EA02423F2193FBF1F342EA032301E07C
:1020F00043EA01636B63638AB8F1100FA2894FF062
:1021000000011848A3EB0203AB610CBF02230123BB
:10211000EB6103F0A1FD0121124803F09DFD0F4B7F
:102120004FF080629A60FFF771FEE189A38907B9D9
:1021300046B1A2680093019113466168094803F013
:10214000D4FC05E0009107486168A26803F0AEFC8A
:1021500002B0BDE8F08700BFD031002000E100E010
:1021600000B00240980900203C4B2DE9F0411B686B
:1021700006460C468AB0986803681B6A9847E3894C
:1021800010280746A6F8A43A23680CBF4FF00208AF
:102190004FF00108082B0CD103AD0FCC0FC594E80C
:1021A0000700336885E807005B6C304603A9984751
:1021B00051E02B4D4FF080622A4B2846C3F888200F
:1021C00003F014FD4FF44033102FA2896B600CBF55
:1021D00002230123AB60638AC5F82C80A3EB0203C2
:1021E000EB604FF00003AB621F4B2B606369257EF1
:1021F0001AD19BB21F2003F01F02D90AC3F3451363
:10220000C2EB0222C1EB0121C3EB032392FBF0F2EC
:1022100042EA056591FBF0F245EA02423F2593FB55
:10222000F5F342EA032501E043EA05650C4803F0B3
:102230000EFC01210A4803F00FFD4FF08062094BAC
:102240009A60FFF7E3FDE289A389294600920448DA
:10225000A26803F02BFC0AB0BDE8F081D031002069
:102260009809002000E100E000B0024010B50446EB
:10227000104B0C3060222146606041F8203B06F094
:102280003FFE04F13C0204F6BC2100231C3242F85C
:10229000243C8A42F9D194F8A72A2046C4F8A03AEF
:1022A00063F30002A4F8A43A84F8A63A84F8A72AB3
:1022B00010BD00BF40020108012380F8641080F8BF
:1022C00065307047406803681B68184700207047F6
:1022D000436B0BB10846184770470000104B0022B3
:1022E00030B5C3F88420BFF34F8FD3F88020C2F3FA
:1022F0004E33C2F3C902590143F6E070084011465B
:1023000040EA8175064C11F1FF31C4F87452F7D2DE
:1023100013F1FF33EFD2BFF34F8FBFF36F8F30BD99
:1023200000ED00E0014B986A704700BF84680140EF
:10233000024B0122996243F8602C70478468014087
:10234000064A536CD0689BB2C0F30A000130834246
:1023500026BF181A80B20020704700BF00680140F5
:102360000849094ACB680948C3F30A03013B9BB2F9
:1023700013800A69C2F30A02013A02800B64012346
:102380004B63704700680140DA090020D80900203B
:10239000704708B506F0F0F8BDE80840FFF79EBFAB
:1023A00010B5044606F068FC23682046DB6FBDE8E4
:1023B0001040184706F0DAB810B504460CF086FE57
:1023C000204610BD30B590F8642090F830309A4225
:1023D0000E4B1A780CD0C2B90D4A0E4914880E481B
:1023E0000C800E4D018804801180012229800BE0B1
:1023F0005AB10948074A0188084D1180044A1488D7
:10240000118000222C8004801A7030BDD53100204C
:10241000D8310020DE310020D6310020DC31002010
:1024200008B531B90A484FF441710A4A0A4BFFF71F
:102430004BFCC2630032816318BF01220364074969
:1024400000330A7018BF0123054A137008BD00BF8E
:10245000D60201088802010818030108CD310020C6
:10246000D4310020F8B5561E9DF81850B6B21F2E74
:1024700019D80124154FB440154E14F0803F08D1EF
:1024800014F00B0F0FD03C88624334880732D2100F
:1024900003E03F88D20834887C43624381634BB1B8
:1024A0001144C16307E00B484FF437710A4A0B4BE4
:1024B000FFF70AFCC36315B10A44026400E0056437
:1024C000074A1370074B1D70F8BD00BFD8310020BC
:1024D000D6310020D6020108140401085003010877
:1024E000CD310020D4310020034B902283F85A23B1
:1024F00083F85823704700BF00E100E0044B4FF021
:102500008072C3F888204FF08062C3F8882070473B
:1025100000E100E0034B4FF080729A604FF0806260
:102520009A60704700E100E0154B10B59A6BD20736
:1025300024D50122134CDA63134A196C1288914294
:1025400012D1124A12881A64226892F85630013366
:1025500082F85630FFF762FB206806F08DFB002002
:10256000BDE8104000F02CBB1A64002000F032FBE4
:1025700020680368BDE810409B69184710BD00BF84
:1025800000680140D0310020DA090020D80900207D
:10259000084B10B55A6892070BD502229A60FFF7D4
:1025A0009DFE054B1B6858680368BDE810405B69D9
:1025B000184710BD00B00240D03100207047012004
:1025C000704758207047582303FB010008307047BC
:1025D000582303FB010008307047012070474FF477
:1025E000317070474FF4317303FB010008307047BE
:1025F0004FF4317303FB010008307047012070472E
:102600001020704700EB01100830704700EB0110FC
:10261000083070470846FEF7DBBE0000034B10B5DC
:102620000446036005F0E0FC204610BDE00401080C
:1026300010B50446FFF7F2FF20460CF047FD204698
:1026400010BD0000034B10B50446036005F0CCFC40
:10265000204610BDA804010810B50446FFF7F2FF9C
:1026600020460CF033FD204610BD0000034B10B592
:102670000446036005F0B8FC204610BD7004010854
:1026800010B50446FFF7F2FF20460CF01FFD204670
:1026900010BD0000084B10B50446036000F53E7005
:1026A000FFF7BCFF04F12C00FFF7CCFF04F114008E
:1026B000FFF7DCFF204610BD1805010810B50446E1
:1026C000FFF7E8FF20460CF001FD204610BD00009A
:1026D0002DE9F0411F4D2B68DB0738D42846FFF762
:1026E000DAFA002833D01C4C1C4B04F5567604F162
:1026F000140004F12C0804F53E776060C4F80880EB
:10270000E7602661236005F071FC154B404663616C
:1027100005F06CFC134B3846E36205F067FC124B86
:1027200004F590612246C4F8F8323046FEF756F8B8
:1027300004F59060FEF701F83046FEF749FE2846A2
:10274000FFF7AAFA20460949094A0CF0B9FC0248E9
:10275000BDE8F081CC0E0020DC090020180501083E
:1027600070040108A8040108E00401089526000887
:102770005409002010B504460CF0A8FC204610BDFA
:1027800008B502F057FF044B1B781BB1BDE80840A9
:1027900001F056BB08BD00BFEC0E0020F7B54C4E53
:1027A0004C4C356815F0010553D13046FFF773FAEC
:1027B00000284ED0484B4FF4F072256130466360DC
:1027C000464B6561A360464B2583E3600123658327
:1027D00084F8453084F8463084F8543084F8573013
:1027E000404BA583E58325846584A58484F8265021
:1027F000A562A5856563A563E563256484F84450F7
:1028000084F8555084F8565084F8585084F859503C
:1028100084F85A5084F85B5084F85C50256684F83C
:1028200065501C60304B31491A804FF4887384F82E
:1028300030500B802E490D702E490A802E4A13808D
:102840002E4B2360FFF728FA20462D492D4A0CF025
:1028500037FC2048002606F051F8FFF77BF90546C3
:10286000FFF77CF9009601463246284633460AF0C7
:1028700029FB254A254B304601251A60FFF740F910
:1028800023480AF089FAFFF723FF08F0C1FB01464D
:10289000104805F077FF1F4B4FF0404110221D708C
:1028A000236800950B48DF6E2B46B84784F85860C4
:1028B00084F846600223184E84F85430304684F879
:1028C0004550FFF737FA266184F85C5003B0F0BD3D
:1028D000C80E0020600E0020F40E0020F00E002034
:1028E000E00E0020D0310020D8310020D631002069
:1028F000D5310020DE310020DC31002078030108D2
:102900009123000854090020D00E002058320020E6
:10291000E80E0020EC0E0020D40E002010B501239C
:1029200092B0022406934FF4803306A80C940793C8
:102930004FF4800310940D9319230E934FF4C87332
:102940000F930823119303F083FF00B1FEE703F018
:1029500047FF00B1FEE70F230390062101A8019372
:102960004FF4A053029404934FF48053059304F062
:1029700045F900B1FEE712B010BD00002DE9F043AB
:1029800000248FB002F044FEFFF7C8FF02F074FC91
:1029900002F0BAFB5C2002F0BFFE02F0FFF902F089
:1029A000A3F8019401F0BCFF0394029001F0C4FF6E
:1029B0004FF04043049007940A93FF238DF834406E
:1029C00006938DF835408DF8364001F0A9FF0B9045
:1029D00001F0B2FF022301A922460C9005934FF4A7
:1029E0008063474808930523099303F0CDFE01F067
:1029F000AFFF00F0D7F8434BC3F88440BFF34F8FCD
:102A0000D3F88020C2F34E33C2F3C902590143F612
:102A1000E0700840114640EA81743A4D11F1FF31EF
:102A2000C5F86042F7D213F1FF33EFD2BFF34F8FF7
:102A30006B6943F480336B61BFF34F8FBFF36F8FCC
:102A4000BFF34F8FBFF36F8F0024C5F850426B69FF
:102A500043F400336B61BFF34F8FBFF36F8F6B6A2B
:102A60004FF00108284E032723F480334FF010491C
:102A700001A86B62736823F0010373601B238DF858
:102A800004808DF80C300223CDF808908DF80530C5
:102A90008DF80F708DF813408DF812408DF81140AD
:102AA0008DF80E408DF80D408DF8104002F056FE66
:102AB000172301A88DF804808DF80C30CDF808900C
:102AC0008DF80F708DF813408DF812808DF811403D
:102AD0008DF805708DF80E408DF80D408DF8104082
:102AE00002F03CFE052343F2D20273606B6A43F4AA
:102AF00080336B624FF020431A600FB0BDE8F08363
:102B0000BC32002000ED00E090ED00E038B5164C3E
:102B1000164B174D22461748174903600CF0D0FAA0
:102B20002846FFF7A3FB2246284614490CF0C8FAB2
:102B3000002513482246134B1349036005710CF01E
:102B4000BFFA12482246124B456012498560036065
:102B50000CF0B6FA104B2246104811490360BDE84C
:102B600038400CF0ADBA00BF54090020F000010855
:102B7000F40E0020E80E0020991A0008551E0008E7
:102B8000E00E002028020108A71D0008D40E002036
:102B900000020108311D0008B8210108F00E0020D4
:102BA000BD25000808B5002001F04CFE034B0020B5
:102BB0001870BDE8084001F073BE00BF9C190020EA
:102BC000012804D1024B1870002001F05FBE70474D
:102BD0009C190020012804D10020024B187001F03C
:102BE0005FBE70479C190020012802D1002001F02F
:102BF00061BE704700F108034FF0FF324360C360CD
:102C00000361002382600360704700230361704703
:102C100043684B609A688A609A685160996008615D
:102C200003680133036070470A68531C30B501D153
:102C3000036907E000F108035C682568954201D844
:102C40002346F9E75A684A6091608B6059600861D1
:102C500003680133036030BD426881680369916095
:102C60008268416851605A68824204BF82685A6033
:102C700000220261186801381860704738B515469F
:102C8000026C044632B9056845BB406800F044FF59
:102C9000656024E06DB980680CF052FAA268236C7C
:102CA000134462689342A36018D323682846A36044
:102CB00015E0C0680CF044FA236CE2685B422168BE
:102CC0001A448A42E2603EBF62689B18E360022DAC
:102CD00004D1A36B13B1A36B013BA3630020A36BCF
:102CE0000133A36338BD10B5026C034672B1C468EA
:102CF0001444C4604068844228BF1868BDE810408E
:102D000028BFD8600846D9680CF01ABA10BD10B5B3
:102D1000044601F027F8A36C002B0CDD636A53B165
:102D200004F1240000F012FE08B100F0A9FEA36C2B
:102D3000013BA364EFE74FF0FF33A36401F038F8E1
:102D400001F010F8636C002B0CDD236953B104F122
:102D5000100000F0FBFD08B100F092FE636C013B37
:102D60006364EFE74FF0FF336364BDE8104001F0A8
:102D70001FB8000038B50D46044650B94FF4A07393
:102D800072B683F31188BFF36F8FBFF34F8F62B6B4
:102D9000FEE700F0E7FF206CE36B22684343A2608C
:102DA000D1181B1A134461600021E3604FF0FF3318
:102DB000A1636364A36485B92369B3B104F110000E
:102DC00000F0C4FD012810D14FF08052094B1A6069
:102DD000BFF34F8FBFF36F8F07E004F11000FFF7D1
:102DE00009FF04F12400FFF705FF00F0E1FF0120D7
:102DF00038BD00BF04ED00E0F8B50D4617460646A5
:102E000050B94FF4A07372B683F31188BFF36F8F7C
:102E1000BFF34F8F62B6FEE711B14843013000E0C7
:102E20000846543000F0C8FE044630B10DB92060A9
:102E30000EE000F1540303600AE04FF4A07372B691
:102E400083F31188BFF36F8FBFF34F8F62B6FEE736
:102E5000E663204625640121FFF78CFF84F850705B
:102E60002046F8BD2DE9FF41884601921E460446E2
:102E700050B94FF4A07372B683F31188BFF36F8F0C
:102E8000BFF34F8F62B6FEE761B9036C53B14FF4E5
:102E9000A07372B683F31188BFF36F8FBFF34F8FA8
:102EA00062B6FEE7022E02D1E36B012B6ED1002742
:102EB00000F058FFA26BE36B9A4201D3022E1AD1A5
:102EC000204641463246FFF7D9FE636A33B104F12A
:102ED000240000F03BFD012809D100E038B14FF09B
:102EE0008052314B1A60BFF34F8FBFF36F8F00F0EA
:102EF0005FFF012055E0019D15B900F059FF43E047
:102F000017B902A800F066FD00F052FF00F024FBA4
:102F100000F028FF636C013301D100236364A36CCC
:102F2000013301D10023A36400F042FF02A801A9EC
:102F300000F068FD18BB00F015FFA76BE56B00F013
:102F400037FFAF4215D104F11000019900F0C4FC25
:102F50002046FFF7DCFE00F093FB08B10127A7E74E
:102F60004FF08052104B1A60BFF34F8FBFF36F8F3B
:102F7000F4E72046FFF7CBFE00F082FBEEE72046A9
:102F8000FFF7C5FE00F07CFB00200AE04FF4A073C1
:102F900072B683F31188BFF36F8FBFF34F8F62B6A2
:102FA000FEE704B0BDE8F08104ED00E02DE9F0415A
:102FB0000E4690461D46044650B94FF4A07372B6B3
:102FC00083F31188BFF36F8FBFF34F8F62B6FEE7B5
:102FD00061B9036C53B14FF4A07372B683F31188D7
:102FE000BFF36F8FBFF34F8F62B6FEE7022D0DD197
:102FF000E36B012B0AD04FF4A07372B683F31188F0
:10300000BFF36F8FBFF34F8F62B6FEE700F094FF00
:10301000EFF311874FF4A07372B683F31188BFF3F7
:103020006F8FBFF34F8F62B6A26BE36B9A4201D3EF
:10303000022D1AD1204631462A46FFF71FFEA36C07
:1030400001330DD1636A73B104F1240000F07EFCFA
:1030500048B1B8F1000F06D00120C8F8000005E023
:10306000A36C0133A364012000E0002087F31188E2
:10307000BDE8F081F8B50E46044650B94FF4A07390
:1030800072B683F31188BFF36F8FBFF34F8F62B6B1
:10309000FEE7056C55B14FF4A07372B683F3118847
:1030A000BFF36F8FBFF34F8F62B6FEE700F044FFB0
:1030B000EFF311874FF4A07372B683F31188BFF357
:1030C0006F8FBFF34F8F62B6A26BE36B9A4215D23C
:1030D000A36B0133A363A36C01330AD1636A5BB1B1
:1030E00004F1240000F032FC30B12EB10120306038
:1030F00005E0A36C0133A364012000E0284687F3B8
:103100001188F8BD2DE9FF410E460192984604460C
:1031100050B94FF4A07372B683F31188BFF36F8F69
:10312000BFF34F8F62B6FEE729B9036C002B40F066
:103130008A800F463AE0002738E017B902A800F06D
:1031400049FC00F035FE00F007FA00F00BFE636C5E
:10315000013301D100236364A36C013301D1002347
:10316000A36400F025FE02A801A900F04BFC002892
:1031700062D100F0F7FDA56B00F01AFE002D55D1CD
:10318000236833B900F0EEFD606800F07FFC00F0CA
:103190000FFE04F12400019900F09EFB2046FFF78A
:1031A000B6FD00F06DFA002837D0012700F0DAFDF7
:1031B000A36B63B320463146E568FFF794FDB8F191
:1031C000000F10D1A36B013BA363236813B900F078
:1031D000E7FC60602369B3B104F1100000F0B6FBB6
:1031E000012810D107E0636AE56063B104F12400AF
:1031F00000F0ACFB38B14FF080521A4B1A60BFF3AD
:103200004F8FBFF36F8F00F0D3FD012026E0019DAB
:10321000002D92D100F0CCFD13E04FF08052114B05
:103220001A60BFF34F8FBFF36F8FBEE72046FFF7E3
:103230006EFD00F025FAB8E72046FFF768FD00F0C4
:103240001FFA00200AE04FF4A07372B683F31188CE
:10325000BFF36F8FBFF34F8F62B6FEE704B0BDE8D8
:10326000F08100BF04ED00E0064A13681968064BC0
:1032700011B94FF0FF3203E01268D268D268526889
:103280001A607047A4190020180000200E4B10B5DA
:103290001A68044650600D4A1268904207D20C4AE0
:1032A00010681968BDE810400431FFF7BDBC094A39
:1032B000106819680431FFF7B7FC074B1A6894428D
:1032C00000D21C6010BD00BF541A0020701A0020EC
:1032D000741A0020A4190020180000202DE9F84FCE
:1032E00099460C9B82460E4615460A9F3BB99000B4
:1032F00000F062FC8346002800F0B48000E09B46AA
:103300005C2000F059FC044688B1AD00C0F830B034
:10331000A52158462A46043D0BF0ACFF236B04F16F
:1033200033021D44731E093625F0070505E0584693
:1033300000F0A0FC96E0B34206D013F8011F02F89B
:10334000011F19780029F6D1042F4FF0000BB84661
:1033500004F1040628BF4FF0040884F83DB030465D
:10336000C4F84CB0C4F82C80C4F84880FFF74DFC7A
:1033700004F11800FFF749FCC8F10503C4F854B084
:103380002846A361514624614A466462C4F850B09D
:1033900084F858B000F0C6FC0B9B206003B11C60A1
:1033A00000F0E0FC314A324D1368DFF8EC90013355
:1033B00013602B683BBB2C601268012A2BD1984606
:1033C00009EB080008F11408FFF714FCB8F1640FCA
:1033D000F6D1DFF8C8A0DFF8C8805046FFF70AFC36
:1033E0004046FFF707FC2348FFF704FC2248FFF79D
:1033F00001FC2248FFF7FEFB214BC3F800A0214B44
:10340000C3F8008007E0204B1B6823B92B68DB6AF8
:10341000BB4200D82C601D4A1D491368013313605C
:103420002364E26A01240B6804FA02F003431420C7
:103430000B60314600FB0290FFF7EAFB00F0B8FC9E
:10344000114B1B685BB12B68DB6ABB4207D24FF0A4
:103450008052104B1A60BFF34F8FBFF36F8F20461F
:10346000BDE8F88F4FF0FF30BDE8F88F7C1A0020E0
:10347000541A0020581A0020401A0020801A0020F8
:10348000A4190020741A0020A8190020781A00201E
:10349000941A002004ED00E0DC190020B01900208F
:1034A000C419002070B5049C059E069D50B94FF4C8
:1034B000A07372B683F31188BFF36F8FBFF34F8F82
:1034C00062B6FEE7042C0AD94FF4A07372B683F3F8
:1034D0001188BFF36F8FBFF34F8F62B6FEE704947E
:1034E00005960695BDE87040FFF7F8BE1FB50024AD
:1034F0001548164940220094234601940294FFF790
:10350000EDFE012812D14FF4A07372B683F3118837
:10351000BFF36F8FBFF34F8F62B60D4B18600D4B2B
:103520001C6004B0BDE8104000F0B8BC50B94FF4C6
:10353000A07372B683F31188BFF36F8FBFF34F8F01
:1035400062B6FEE704B010BD69370008380501080F
:10355000A8190020701A0020024A13680133136072
:10356000704700BF6C1A00203A4B2DE9F0471B68EA
:10357000002B41D1384B1A6801321A601F68CFB94D
:10358000364B1A68126852B14FF4A07372B683F3C7
:103590001188BFF36F8FBFF34F8F62B6FEE7304ADB
:1035A00019681068186011602E4A1368013313609F
:1035B000FFF75AFE2C4E0024DFF8BC803368DFF89A
:1035C000BC909F420DD3254B1A68126812B94FF078
:1035D000FF3305E01B68DB68DD686B689F4211D232
:1035E0003360D9F80030DA6A1423534358F80330B3
:1035F000022B28BF012425E01C4A00241368013354
:1036000013601FE005F1040A5046FFF725FBAB6A83
:103610001BB105F11800FFF71FFBE96A01231448ED
:103620008B40026813430360142000FB0180514665
:10363000FFF7EEFAD9F80030EA6ADB6A9A4228BF4F
:103640000124C0E70B4B1B68002B18BF0124204648
:10365000BDE8F0876C1A0020701A0020A419002021
:10366000741A0020A019002018000020D81900208A
:10367000941A0020981A0020DC190020541A002007
:1036800070B5304C236853B94FF4A07372B683F30E
:103690001188BFF36F8FBFF34F8F62B6FEE700F064
:1036A00061FB2368013B236023680BB1002445E0E4
:1036B000254B1B68002BF9D0244B1A680AB3DB6832
:1036C0000125DC68261D04F11800FFF7C5FA304615
:1036D000FFF7C2FAE26A1E4905FA02F00B680343DB
:1036E00014200B6031461B4B00FB0230FFF790FAB1
:1036F000194BE26A1B68DB6A9A42DDD3174B1D60E7
:10370000DAE7174C2368ABB9144B1C68012CCDD1F8
:103710004FF08052134B1A60BFF34F8FBFF36F8F80
:103720000CE0FFF721FF10B101220C4B1A60236857
:10373000013B23602368002BF3D1E5E700F038FB61
:10374000204670BD6C1A00207C1A0020581A0020F8
:10375000941A0020DC190020541A0020981A002026
:10376000D819002004ED00E008B5184C2368F3B127
:10377000174DFFF7F1FE2E68FFF782FF002EF4D001
:1037800000F0F0FAEB68DD68281DFFF765FA114AD2
:103790001368013B13602368013B236000F008FBC2
:1037A000286B00F067FA284600F064FADDE70A4B60
:1037B0001B68012B07D94FF08052084B1A60BFF3EA
:1037C0004F8FBFF36F8FFEF75FFACEE7AC19002083
:1037D000401A00207C1A0020DC19002004ED00E0D3
:1037E00038B50D46044608B9044B1C6800F0BAFA17
:1037F0002565BDE8384000F0DBBA00BF541A002050
:1038000008B9044B1868036D0BB1084618471846F1
:10381000704700BF541A002038B5294B1A68294B4D
:1038200012B101221A6038BD274C01211A602068AC
:10383000FFF7E6FF2268236812681B6B9A4204D8E0
:10384000206821683431FEF71DFA236814221F49CD
:10385000186B1D4D0BF044FC20B1286829683431E9
:10386000FEF710FA1A4B1B68B3FA83F3DBB214228B
:103870001849C3F11F035A438D58881855B94FF49E
:10388000A07372B683F31188BFF36F8FBFF34F8FAE
:1038900062B6FEE7456808326D680A4495424560A5
:1038A00004BF6A684260142202FB031300215B68B4
:1038B000DB6823602068BDE83840FFF7A1BF00BF88
:1038C0006C1A0020981A0020541A002024050108C0
:1038D000941A0020DC19002038B50D4650B94FF479
:1038E000A07372B683F31188BFF36F8FBFF34F8F4E
:1038F00062B6FEE7114C21681831FFF795F9206890
:103900000430FFF7A9F940B923680D49D86A0123AB
:103910000A68834022EA03030B606B1C06D121680E
:1039200008480431BDE83840FFF772B9064B186803
:103930002844BDE83840FFF7A9BC00BF541A002056
:10394000941A0020801A0020701A002038B5C3682D
:10395000DC6854B94FF4A07372B683F31188BFF3D7
:103960006F8FBFF34F8F62B6FEE704F1180528464C
:10397000FFF772F9114B1B687BB9251D2846FFF72D
:103980006BF90F48E16A012302688B40134303601F
:1039900014200C4B00FB013000E00B482946FFF7D8
:1039A00037F90A4BE26A1B68DB6A9A4203D90120A5
:1039B000074B186038BD002038BD00BF6C1A0020CE
:1039C000941A0020DC190020581A0020541A0020F4
:1039D000981A002050B94FF4A07372B683F311887F
:1039E000BFF36F8FBFF34F8F62B6FEE7034B1B68C9
:1039F0000360034B1B684360704700BFA0190020A1
:103A0000701A002038B50D46044650B94FF4A07323
:103A100072B683F31188BFF36F8FBFF34F8F62B617
:103A2000FEE751B94FF4A07372B683F31188BFF368
:103A30006F8FBFF34F8F62B6FEE700F093F90E4B26
:103A400019682B685A1C10D00C4A106822689042E2
:103A5000626801D091420AD2881A984207D2521A5B
:103A6000204613442B60FFF7B5FF002400E001243B
:103A700000F09EF9204638BD701A0020A0190020E1
:103A80000122014B1A607047981A00202DE9F0417D
:103A90000446002838D01D4DC36A2A68D26A934272
:103AA00032D28269002A04DB2A68D26AC2F1050296
:103AB0008261174E1427626907FB03639A4220D183
:103AC00004F104084046FFF7C7F8124B48B9E06A12
:103AD0004743F2592AB901221968824021EA0202B9
:103AE0001A602A6801204146D26AE26290401C684E
:103AF00020431860142000FB0260BDE8F041FFF78E
:103B000087B82B68DB6AE362BDE8F081541A0020B5
:103B1000DC190020941A002070B5044608B9002072
:103B200070BDC36C53B94FF4A07372B683F31188A0
:103B3000BFF36F8FBFF34F8F62B6FEE7C16A013BE1
:103B4000826CC3649142EAD0002BE8D1051D28465F
:103B5000FFF782F81049114A50B9E66A14237343FB
:103B6000CB582BB901231068B34020EA030313603C
:103B7000A36CC3F10500E362A0610124106804FA9C
:103B800003F630431060142000FB03102946FFF7B2
:103B90003FF8204670BD00BFDC190020941A0020B9
:103BA000044B1A681AB11968CA6C0132CA641868E1
:103BB000704700BF541A002070B50446FFF7CCFCD4
:103BC0002748016871B9274B41F27455264A23F002
:103BD000070351601360254A83E82400012382E82B
:103BE000220003602CB1083463071CBF24F00704D3
:103BF0000834621E41F272539A4229D81A4A136855
:103C00005968A14203D319498B4206D120E01968B3
:103C10000029F8D01A460B46F2E7196815681160BA
:103C200059680835091B10290CD91A1951605C60B4
:103C30000D49546808684668A64201D20146F9E772
:103C400010600A600A495B680A68D21A0A6000E0DC
:103C50000025FFF715FD0DB9FEF715F8284670BDD4
:103C60009C1A0020B01A0020A01A00202430002046
:103C70001C00002038B50446C8B1A0F10805FFF7C4
:103C80006BFC54F8041C0A4B1A685068884201D235
:103C90001346F9E744F8082C064A1D60136854F8E7
:103CA000041C0B441360BDE83840FFF7E9BC38BD85
:103CB000A01A00201C0000200C4B1B6801330AD006
:103CC0004FF4A07372B683F31188BFF36F8FBFF305
:103CD0004F8F62B6FEE74FF4A07372B683F311887C
:103CE000BFF36F8FBFF34F8F62B6FEE72000002057
:103CF00006480068006880F3088862B661B6BFF3C2
:103D00004F8FBFF36F8F00DF00BF000008ED00E0B2
:103D1000DFF80C00016841F4700101607047000099
:103D200088ED00E04FF0807340F8202C00E90A0095
:103D3000034B443883636FF002030362704700BF94
:103D4000B93C0008064B19680868B0E8F04F80F3EA
:103D50000988BFF36F8F4FF0000080F31188704720
:103D6000541A00204FF4A07372B683F31188BFF386
:103D70006F8FBFF34F8F62B60B4A13680133012B6D
:103D800013600FD1094B1B6813F0FF0F0AD04FF4DB
:103D9000A07372B683F31188BFF36F8FBFF34F8F99
:103DA00062B6FEE7704700BF2000002004ED00E08F
:103DB000094A136853B94FF4A07372B683F311889C
:103DC000BFF36F8FBFF34F8F62B6FEE7013B136007
:103DD0000BB983F31188704720000020EFF30980AE
:103DE000BFF36F8F154B1A681EF0100F08BF20ED40
:103DF000108A20E9F04F10604DF8043D4FF4A07098
:103E000072B680F31188BFF34F8FBFF36F8F62B626
:103E1000FFF702FD4FF0000080F3118808BC19681D
:103E20000868B0E8F04F1EF0100F08BFB0EC108A21
:103E300080F30988BFF36F8F704700BF541A0020CA
:103E400008B5EFF311834FF4A07272B682F31188B4
:103E5000BFF36F8FBFF34F8F62B6FFF785FB18B1CB
:103E60004FF08052024B1A60002383F3118808BD83
:103E700004ED00E0064B4FF47A721B68B3FBF2F3DB
:103E8000044A013B13600722034B1A60704700BFCE
:103E90005000002014E000E010E000E0204B07B5E7
:103EA0001A78D2B20192FF221A701B781D4ADBB237
:103EB0008DF803309DF8033003F04003137007239F
:103EC000194A13609DF80310581E090607D59DF87E
:103ED00003305B00DBB28DF803300346F2E71B02D0
:103EE00003F4E0631360019B0D4ADBB213700F4BC8
:103EF0001A6842F47C021A601A6842F07C421A6026
:103F0000FFF7B8FF00220A4B1A60FFF701FF094ACA
:103F1000136843F040431360FFF7EAFEFFF7CCFE5F
:103F200000E400E02C3000203030002020ED00E0E4
:103F30002000002034EF00E0EFF305830F2B10D9B1
:103F4000124A9B5C124A12789A420AD94FF4A07323
:103F500072B683F31188BFF36F8FBFF34F8F62B6D2
:103F6000FEE70C4B0C4A1B68126803F4E0639342B3
:103F70000AD94FF4A07372B683F31188BFF36F8F21
:103F8000BFF34F8F62B6FEE7704700BFF0E300E07B
:103F90002C3000200CED00E030300020684620F08E
:103FA00007018D46FEE7684620F007018D46FEE7D3
:103FB000684620F007018D46FEE7684620F00701BD
:103FC0008D46FEE7684620F007018D46FEE768460D
:103FD00020F007018D46FEE7684620F007018D4678
:103FE00001B5BDE8014085467047684620F00701ED
:103FF0008D4601B5BDE8014085467047684620F012
:1040000007018D4601B5BDE8014085467047684609
:1040100020F007018D4601B5BDE801408546704797
:10402000684620F007018D4601B5BDE80140854690
:104030007047684620F007018D4601B5BDE8014094
:1040400085467047684620F007018D4601B5BDE8FA
:10405000014085467047684620F007018D4601B54E
:10406000BDE8014085467047684620F007018D464F
:1040700001B5BDE8014085467047684620F007015C
:104080008D4601B5BDE8014085467047684620F081
:1040900007018D4601B5BDE8014085467047684679
:1040A00020F007018D4601B5BDE801408546704707
:1040B000684620F007018D4601B5BDE80140854600
:1040C0007047684620F007018D4601B5BDE8014004
:1040D00085467047684620F007018D4601B5BDE86A
:1040E000014085467047684620F007018D4601B5BE
:1040F000BDE8014085467047684620F007018D46BF
:1041000001B5BDE8014085467047684620F00701CB
:104110008D4601B5BDE8014085467047684620F0F0
:1041200007018D4601B5BDE80140854670476846E8
:1041300020F007018D4601B5BDE801408546704776
:10414000684620F007018D4601B5BDE8014085466F
:104150007047684620F007018D4601B5BDE8014073
:1041600085467047684620F007018D4601B5BDE8D9
:10417000014085467047684620F007018D4601B52D
:10418000BDE8014085467047684620F007018D462E
:1041900001B5BDE8014085467047684620F007013B
:1041A0008D4601B5BDE8014085467047684620F060
:1041B00007018D4601B5BDE8014085467047684658
:1041C00020F007018D4601B5BDE8014085467047E6
:1041D000684620F007018D4601B5BDE801408546DF
:1041E0007047684620F007018D4601B5BDE80140E3
:1041F00085467047684620F007018D4601B5BDE849
:10420000014085467047684620F007018D4601B59C
:10421000BDE8014085467047684620F007018D469D
:1042200001B5BDE8014085467047684620F00701AA
:104230008D4601B5BDE8014085467047684620F0CF
:1042400007018D4601B5BDE80140854670476846C7
:1042500020F007018D4601B5BDE801408546704755
:10426000684620F007018D4601B5BDE8014085464E
:104270007047684620F007018D4601B5BDE8014052
:1042800085467047684620F007018D4601B5BDE8B8
:10429000014085467047684620F007018D4601B50C
:1042A000BDE8014085467047684620F007018D460D
:1042B00001B5BDE8014085467047684620F007011A
:1042C0008D4601B5BDE8014085467047684620F03F
:1042D00007018D4601B5BDE8014085467047684637
:1042E00020F007018D4601B5BDE8014085467047C5
:1042F000684620F007018D4601B5BDE801408546BE
:104300007047684620F007018D4601B5BDE80140C1
:1043100085467047684620F007018D4601B5BDE827
:10432000014085467047684620F007018D4601B57B
:10433000BDE8014085467047684620F007018D467C
:1043400001B5BDE8014085467047684620F0070189
:104350008D4601B5BDE8014085467047684620F0AE
:1043600007018D4601B5BDE80140854670476846A6
:1043700020F007018D4601B5BDE801408546704734
:10438000684620F007018D4601B5BDE8014085462D
:104390007047684620F007018D4601B5BDE8014031
:1043A00085467047684620F007018D4601B5BDE897
:1043B000014085467047684620F007018D4601B5EB
:1043C000BDE8014085467047684620F007018D46EC
:1043D00001B5BDE8014085467047684620F00701F9
:1043E0008D4601B5BDE8014085467047684620F01E
:1043F00007018D4601B5BDE8014085467047684616
:1044000020F007018D4601B5BDE8014085467047A3
:10441000684620F007018D4601B5BDE8014085469C
:104420007047684620F007018D4601B5BDE80140A0
:1044300085467047684620F007018D4601B5BDE806
:10444000014085467047684620F007018D4601B55A
:10445000BDE8014085467047684620F007018D465B
:1044600001B5BDE8014085467047684620F0070168
:104470008D4601B5BDE8014085467047684620F08D
:1044800007018D4601B5BDE8014085467047684685
:1044900020F007018D4601B5BDE801408546704713
:1044A000684620F007018D4601B5BDE8014085460C
:1044B0007047684620F007018D4601B5BDE8014010
:1044C00085467047684620F007018D4601B5BDE876
:1044D000014085467047684620F007018D4601B5CA
:1044E000BDE8014085467047684620F007018D46CB
:1044F00001B5BDE8014085467047684620F00701D8
:104500008D4601B5BDE8014085467047684620F0FC
:1045100007018D4601B5BDE80140854670476846F4
:1045200020F007018D4601B5BDE801408546704782
:10453000684620F007018D4601B5BDE8014085467B
:104540007047684620F007018D4601B5BDE801407F
:1045500085467047684620F007018D4601B5BDE8E5
:10456000014085467047684620F007018D4601B539
:10457000BDE8014085467047684620F007018D463A
:1045800001B5BDE8014085467047684620F0070147
:104590008D4601B5BDE8014085467047684620F06C
:1045A00007018D4601B5BDE8014085467047684664
:1045B00020F007018D4601B5BDE8014085467047F2
:1045C000684620F007018D4601B5BDE801408546EB
:1045D0007047684620F007018D4601B5BDE80140EF
:1045E00085467047684620F007018D4601B5BDE855
:1045F000014085467047684620F007018D4601B5A9
:10460000BDE8014085467047684620F007018D46A9
:1046100001B5BDE801408546704700006846154A6F
:1046200020F007018D4679B5134B14498B4204D213
:1046300052F8041F43F8041BF7E7114B114A934249
:1046400003D2002243F8042BF8E70F4B00250F4C50
:104650001E46E41AA410A54204DA56F825300135A6
:104660009847F8E703F012FCFDF738FBBDE8794006
:1046700085467047F03701080000002094080020AC
:1046800094080020E4330020DC370108EC370108EF
:1046900070B58AB0054601F039FF002840F09280DD
:1046A000494B0026494C9D42AE602E610CBF484AE2
:1046B000484A9D426E612A60474AEE616A604FF047
:1046C00001022E62EA60236B3BD143F08003434832
:1046D00005A92363236B079603F080030193019BD5
:1046E000802305931223069302230893042309933E
:1046F00001F00AFB4FF48073384805A9059301F0D7
:1047000003FB236C0F213246482043F4000323644B
:10471000236C03F400030293029B236A43F4000317
:104720002362236A23F40003236200F0B1FF4820D0
:1047300000F0E6FF49200F21324600F0A9FF492092
:104740003BE043F00203264805A92363236B079649
:1047500003F002030393039B4FF48073059312232A
:104760000693022308930423099301F0CDFA4FF432
:1047700000731B4805A9059301F0C6FA236C0F21AD
:1047800032461F2043F400132364236C03F4001308
:104790000493049B236A43F400132362236A23F4E3
:1047A0000013236200F074FF1F2000F0A9FF2020F7
:1047B0000F21324600F06CFF202000F0A1FF2846B8
:1047C00001F0B6FC0AB070BD343000200038024061
:1047D000005C00400054004032279140001C024021
:1047E0000004024030B585B00546089C0094BDF831
:1047F000244001944FF47A74029401F009FD0446B8
:1048000028B1284601F0EAFC2846FFF741FF204680
:1048100005B030BD30B585B00546089C0094BDF8A4
:10482000244001944FF47A74029401F0ADFD0446E3
:1048300028B1284601F0D2FC2846FFF729FF204680
:1048400005B030BD30B5044687B0C8B90D4B022560
:104850000D48196B41F48071196301A91B6B019517
:1048600003F480730093009B0123029303930323BB
:10487000049301F049FA04482946224601F010FB4E
:1048800007B030BD003802400020024020B9034884
:104890000221012201F004BB704700BF002002404A
:1048A000024618B90248022101F0FABA704700BF67
:1048B0000020024018B90248022101F0F5BA704701
:1048C000002002400148FFF7E3BE00BF3430002063
:1048D0001FB504AB0446064803F8012D0A460093B1
:1048E000012321460193FFF77DFF04B010BD00BFF7
:1048F000343000201FB5002204AB0446064803F8FC
:10490000012D0A460093012321460193FFF782FF00
:104910009DF80F0004B010BD3430002000F098BEA8
:10492000034B34211A68034B01FB0233186E7047A6
:1049300080300020BC320020034B34211A68034B26
:1049400001FB0233586E704780300020BC320020DB
:1049500008B5094B4FF4805108481A68936943F031
:1049600001039361012201F09BFA0548082101220D
:10497000BDE8084001F094BABC320020002002409B
:10498000002802404B4B4C48F0B55A6C8FB00224C3
:104990000E2542F0806209A94FF48057474E5A64B1
:1049A0005A6C02F080620092009A1A6B42F4000284
:1049B0001A631A6B02F400020192019A1A6B42F018
:1049C00010021A631A6B02F010020292029A1A6B1A
:1049D00042F040021A631A6B02F040020392039AFB
:1049E0001A6B42F480721A631A6B02F4807204929A
:1049F000049A1A6B42F400721A631A6B02F4007282
:104A00000592059A1A6B42F480621A631A6B02F4DB
:104A100080620692069A1A6B42F480721A631A6BCD
:104A200002F480720792079A1A6B42F480621A634A
:104A30001B6B0A9403F480630C940D950893089BF8
:104A40001023099300230B9301F05EF9092309A9B0
:104A50001B480A940D93099701F056F94FF46743E8
:104A6000304609A90A9409930D9501F04DF94EF6C7
:104A7000FF7309A9134809930A940D9501F044F9AD
:104A80000A94F723104C09A90D9501252046099396
:104A900001F03AF9304609A909970A9501F034F96D
:104AA0000823204609A90A95099301F02DF90FB0B2
:104AB000F0BD00BF0038024000100240002002405C
:104AC0000018024000240240002802400548082344
:104AD0000360C02343610523C3614FF48033C36285
:104AE00002F03AB98430002010B52823224C00216E
:104AF000636109232046A3613523E3610B2323620D
:104B000040F21B13A36240F21523636240F21D13AF
:104B1000236340F23523E362FFF7D8FF4FF4F073CD
:104B2000204623664FF488736366002384F834308C
:104B300084F8353084F836306360A360E360236125
:104B40000E4B236001F049FE014610B92046FFF7E5
:104B500019FF094801F096FD09484FF480510122E0
:104B600001F09EF908210122064801F099F900F0B0
:104B700015F9002010BD00BFBC32002000680140C4
:104B800000200240002802402DE9F743224C012674
:104B9000224D4FF000081027214681464FF6FF7244
:104BA0002846CDF80480A660C4F80C8084E8C000D4
:104BB00002F0A9FC304600F04BFD022321462846B6
:104BC0004FF6FF72A660C4F80C8084E8880002F0FB
:104BD0009AFC0323214628464FF6FF72C4F80C8046
:104BE00084E888000823A36002F08DFC4FF408736A
:104BF00021464FF6FF72284601930423A66084E8FD
:104C00008800019BE36002F07EFC4946284602F0E2
:104C100091FC03B0BDE8F0836831002064330020CC
:104C2000554B70B59A6B8EB00646544842F001025F
:104C30000EAC00259A639A6B02F001020192019A70
:104C40001A6B42F480021A631A6B02F48002029219
:104C5000029A1A6B42F004021A631A6B02F0040201
:104C60000392039A1A6B42F008021A631A6B02F05D
:104C700008020492049A1A6B42F010021A631A6B2B
:104C800002F010020592059A1A6B42F020021A6394
:104C90001A6B02F020020692069A1A6B42F040024A
:104CA0001A631A6B02F040020792079A1A6B42F0DD
:104CB00080021A6301221B6B0B9203F0800308939E
:104CC000089B02230A930C930C230D93082344F8AA
:104CD000143D214601F018F84CF203732146284890
:104CE000099301F011F84FF6837321462548099383
:104CF00001F00AF84FF63F0321462348099301F0DB
:104D000003F848F2331321462048099300F0FCFFD2
:104D1000282321461E481F4C099300F0F5FF8023ED
:104D2000256320463463A3604FF400736560E3603D
:104D30004FF48063E56123614FF4805365626361E2
:104D40004FF48043E562A3614FF40033A66323620E
:104D50000323A362104B236000F0B6FD204600F051
:104D600039FD0F212A46382000F092FC382000F04F
:104D7000C7FC0EB070BD00BF003802400008024002
:104D8000000C0240001002400014024000180240D3
:104D9000001C0240083100201064024038B51A4C53
:104DA00007211A4B04221A4D204623600223696012
:104DB0002B602B616B61AB611023E96000212361E3
:104DC0004023616063614FF48073A160A3614FF47D
:104DD0000063E26023624FF48053E1616362A16289
:104DE000AA60FFF71DFF2046294602F06CFB094C24
:104DF00010B10123237000E0207040F20360FFF740
:104E0000C3FE207838BD00BF64330020400100A0FD
:104E100078310020240000200D4B10B51880702040
:104E20000C4B0D4C19802368984763687020984795
:104E300051280BD1094B702008221C60084B1870B8
:104E4000084B1A70E3689847002010BD032010BD7E
:104E5000A8310020C231002028000020C4310020E9
:104E6000C0310020C131002037B5154B02A9002404
:104E70000546187841F8044D00F05EFB01981828AB
:104E800013D006D810280CD014280CD0A8B9A862CA
:104E900014E040280BD049280BD01C280DD1042346
:104EA00008E0012306E0022304E0032302E00523D7
:104EB00000E00623AB62204600E0012003B030BDD5
:104EC000C03100202DE9F04F574E95B00024574DCA
:104ED000336882460594A946069407941B6928788E
:104EE000984703968AF80000002800F099805546FC
:104EF0000EAE0DF1440857469AF800309C4280F0FF
:104F00008C80039B314699F8000042461B68DFF80D
:104F100030B15B699847464B0DF12C0E1A7808ABFF
:104F2000012A01BF318823F81410B8F800102EF8B8
:104F3000141090073F4842BF3188C1F5805123F8D3
:104F40001410510742BFB8F80010C1F580512EF877
:104F5000141012074FEA840142BF32882EF8142041
:104F6000B8F800203EF814E048BF23F8142050F8A9
:104F7000242033F814C051F80B3094458CBFC2EB99
:104F80000C02CCEB02029E4592B28CBFC3EB0E0327
:104F9000CEEB03039BB21344052B99F80030C4BF3A
:104FA00040F801C04BF801E0702B04D1A7F802C013
:104FB000A7F80CE00EE0204AB2F800E0425802FBED
:104FC0000EF2120B7A801D4A10885BF801204243D2
:104FD000120BBA8107AA1846214606AB009205AA11
:104FE00000F0BAFA059BAB75069B85F82030079B4D
:104FF000032B0BD8DFE803F002040608012304E0CA
:10500000022302E0032300E00023EB7601340135A4
:105010000237023608F102086EE75046FFF724FF18
:1050200015B0BDE8F08F00BFC4310020C0310020B2
:10503000C131002094310020A8310020C23100206D
:10504000AC31002000B54FF4807295B04FF0807104
:1050500003460C9205220F91012106920022019134
:105060000D920E920B921192129213920092049250
:105070001022039106A902924FF48002054805927E
:105080006A4602F0A9FC003018BF012015B05DF897
:1050900004FB00BF9833002000B54FF4807395B037
:1050A000184841F288320C93062306A90693002380
:1050B0000D930E930F930B9311931293139302F08E
:1050C00048FCD0B90223049006A90E4800936A4612
:1050D000019301230393102302934FF4800305935C
:1050E000052306934FF080730F9341F2883302F04B
:1050F00073FC003018BF012000E0012015B05DF8FE
:1051000004FB00BF9833002000B54FF4807391B0CA
:105110004FF040720E480893EB230B920A22029341
:105120004FF44063079202A909934FF400536A4673
:10513000059300230A930D930E930F93019300930D
:1051400002F09FFC003018BF012011B05DF804FB95
:1051500098330020454BF0B59A6B8DB0444D09242F
:1051600042F0020207A9284604279A6300269A6B98
:1051700002F002020092009A9A6942F002029A61D9
:105180009A6922F002029A611A6B42F002021A63D3
:105190001A6B02F002020192019A1A6B42F00202AB
:1051A0001A631A6B02F002020292029A1A6B42F020
:1051B00008021A631A6B02F008020392039A1A6B30
:1051C00042F008021A631A6B02F008020492049A71
:1051D0001A6B42F010021A631A6B02F01002059269
:1051E000059A1A6B42F008021A631B6B03F008035E
:1051F0000693069B402307930223089301230993F8
:1052000003230A930A230B9300F07EFD284607A987
:10521000079709960B9400F077FD4FF4006307A9F8
:105220000B941D440793284600F06EFD4FF4805305
:10523000284607A907930B9400F066FD07A90D48BF
:1052400007970B9400F060FD4FF40053284607A920
:105250000B94079300F058FD0F2132465C2000F0BC
:1052600017FA5C2000F04CFA0DB0F0BD0038024097
:1052700000040240001002402DE9F0414A4C90B079
:105280004A4B2046236002F048FB054608B1012046
:1052900087E020462946FFF75DFF042301264FF0F3
:1052A0008077A36010236660E36097FAA7F3B3FAF0
:1052B00083F34FF480782046A561013BC4F8148045
:1052C000E5612361256202F0C9FA0028DFD1662377
:1052D00009900A9002A90B9041F2883207900D9034
:1052E0000E900F902046CDF82080029302F031FB03
:1052F00080B99923204602A941F28832029302F034
:1053000028FB38B941F28830FFF79CFE003018BF07
:10531000012008B1042044E0852309900A9002A9E5
:10532000079041F288320D900E900F902046CDF8F4
:10533000208002930B970C9602F00BFB0028E9D11A
:1053400020460DF1070141F2883202F080FC00286E
:10535000E0D1FFF7A1FE0028DCD18123F0220293E7
:1053600092FAA2F20A23B2FA82F2204602A99340EC
:105370009DF8072002F00F02134341F288328DF8A6
:10538000073002F0E6FA0028C4D120460DF10701EB
:1053900041F2883202F0FAFB003018BF01200028E9
:1053A000B8D110B0BDE8F08198330020001000A003
:1053B000704700207047704710B5054CC820FFF7B4
:1053C000ADFA23781BB9FFF77DFA0123237010BDD6
:1053D000CA31002013B50024C0B202218DF8074065
:1053E000FFF788FA8DF807009DF8073003F00F03E8
:1053F0008DF807309DF80730052B01D98DF807404F
:105400009DF80720034B9DF807005A7000229A7000
:1054100002B010BDCA3100202DE9F74F294D924648
:1054200000248846AB786A788DF807409A4246D9BE
:10543000092BC7B2244E92BF244AA34621463846C0
:1054400097BFD15CA146224A12F803B09FBF214A00
:1054500012F80390204AD45CFFF74CFA8DF807004D
:1054600059469DF8073038463380FFF743FA8DF8E8
:10547000070038469DF8073003F00F01338843EAF0
:1054800001234946AAF800303380FFF733FA8DF83C
:10549000070021469DF8073038463380FFF72AFA87
:1054A0008DF807009DF8073003F00F02338843EAB8
:1054B00002233380A8F80030AB780133AB7003B01F
:1054C000BDE8F08FCA310020C83100203D05010839
:1054D00047050108510501085B050108C0B2A42178
:1054E0000122FFF7F5B9C0B2A4210022FFF7F0B9FD
:1054F000FFF7F9BF37B500230E4C05468DF807308E
:1055000023781BB9FFF7DEF9012323700324013C44
:10551000E8B2A821FFF7EEF914F0FF048DF80700B8
:105520009DF80730DBB201D0512BF0D19DF8070078
:1055300003B030BDCA310020002313B50C46C0B201
:1055400001218DF80730FFF7D5F98DF807009DF898
:105550000730236002B010BD2DE9F74398461D4B7C
:10556000002491465B788DF8074099422ED2092994
:10557000C5B294BF184B274628468FBF26465F5CAE
:10558000164B5E5C9CBF164B5C5C3946FFF7B2F96C
:105590008DF807009DF8071028460A9B89091960B5
:1055A0003146FFF7A7F98DF807009DF80730284628
:1055B0002146C9F80030FFF79DF98DF807009DF8E6
:1055C000072002F040021209C8F8002003B0BDE82D
:1055D000F08300BFCA310020650501086F0501088E
:1055E0007905010870470000084B10B5044618689B
:1055F0004FF47A73B0FBF3F000F09AF84FF0FF30FD
:105600002146002200F044F8002010BD5000002088
:10561000074A032008B5136843F40073136000F0D1
:1056200025F80020FFF7E0FFFFF7DCFF002008BDB2
:10563000003C0240024A136801331360704700BF08
:10564000DC330020014B1868704700BFDC330020BA
:1056500013B50190FFF7F6FF0446FFF7F3FF019B38
:10566000001B9842F9D302B010BD0000074A00F0B9
:105670000700D36823F4E0631B041B0C43F0BF63F3
:1056800043F4003343EA0023D360704700ED00E0A9
:10569000194B70B5DB68C3F30223C3F107051C1D6A
:1056A000042D28BF0425062C4FF001048CBF033BBA
:1056B0000023002804FA03F604FA05F404F1FF3489
:1056C00006F1FF3601EA040102EA060201FA03F1DB
:1056D00042EA01024FEA021205DA00F00F00D2B2EC
:1056E000064B1A5470BD00F16040D2B200F5614023
:1056F00080F8002370BD00BF00ED00E014ED00E075
:105700004109012300F01F00024A834042F8213082
:10571000704700BF00E100E04309012200F01F00D4
:1057200002492033824041F82320704700E100E025
:105730000138B0F1807F0AD2064BF021064A58604A
:10574000002082F82310072298601A607047012019
:10575000704700BF10E000E000ED00E04378114921
:105760008B600378DBB14368CB60C37A027B1B0696
:1057700043EA027302781343827A43EAC243427BCC
:1057800043EA8243827B43EA4243C27B43EA0243C9
:10579000427A43EA0223027A43EA420300E0CB6002
:1057A0000B61704790ED00E003681821DAB223F432
:1057B0007F73103A23F00303B2FBF1F20449032A8A
:1057C000895C88BF0433C1658365806D704700BF05
:1057D0008305010838B50446FFF734FF0546002C61
:1057E00067D00023226884F83430022384F83530EF
:1057F000136823F00103136021680B68D80708D5EC
:10580000FFF720FF401B0528F6D9202303206365FE
:1058100054E00B682B4AA0681A4063681843E36899
:1058200018432369184363691843A3691843E3695C
:105830001843236A03431343626A042A01BFE26ADE
:10584000206B024313430B602168626A4B69042A90
:1058500023F0070343EA02031DD1A26AA0691343A0
:1058600020B9012A0BD013D3022A10E0B0F5005F53
:105870000AD1032A0FD8DFE802F01E0B1E02E26AEB
:10588000B2F1C07F07D116E0022A14D9032A02D14F
:10589000E26AD2010FD44B612046FFF785FFE26D2B
:1058A0003F239340836000200123606584F83530F6
:1058B00038BD012038BD40230120636584F83500E0
:1058C00038BD00BF3F8010F038B5054618B390F8DA
:1058D0003540E4B2022C20D002680024136823F083
:1058E00001031360212203681C6003685C60036885
:1058F0009C600368DC6003681C6103685A61FFF701
:1059000053FFEA6D3F23934083606C6585F8344014
:1059100085F8354001E0012038BD204638BD70B51E
:105920000446856DFFF78EFE064694F83530022B4F
:1059300006D0802301206365002384F8343070BDD5
:105940002268136823F0160313602268536923F05A
:1059500080035361236C0BB9A36C23B122681368D5
:1059600023F0080313602268136823F00103136017
:105970002368186810F001000DD0FFF763FE801B4C
:105980000528F5D9202303206365002384F835001A
:1059900084F8343070BDE26D3F239340AB60012347
:1059A00084F8340084F8353070BD0000F0B5066826
:1059B000254D746C95FAA5F5B5FA85F504F04044CB
:1059C000059FAB403C43234373640368DA63436839
:1059D0000468B3F5403F35D1806801F07F4501F49C
:1059E0007F0301F47F42C9B220B943EA050040EACF
:1059F000020302E0012802D11343194320E00228E8
:105A000007D1D80C920AC00240EA421242EAD10100
:105A100016E003280AD1D80CD20A8002EB0F40EA24
:105A2000421242EAD10141EAC33109E0180D120BDA
:105A300000022B0F40EA021242EA111141EA03313F
:105A4000A163F0BDE160F0BD0000FF3F704710B5FD
:105A5000044640B390F8393003F0FF021BB980F8D8
:105A60003820FFF7F3FF21680223002084F8393043
:105A70000B6823F44032636813430B6021684B6B5F
:105A800023F00702A36813434B632168E2680B6CA1
:105A900023F47F5323F03F0313430B640123E0639C
:105AA00084F8393010BD012010BD704773B590F8EF
:105AB00038400546012C4FF0020413D080F83940DD
:105AC0000126069C80F838600094FFF76FFF2A6873
:105AD0000020136843F40C5313602A68136833439F
